:03000000020006F5
:05005F00E4F508F509BD
:03006C000200038C
:030003000200A94F
:10006F0075F60175F300AEF34306608EF3AEF343FE
:10007F0006088EF353F36FAEF57F00EE2EFEEF33CF
:10008F00FFEE2EFEEF33FFACF47D00EC2EF508ED06
:10009F003FF509850882850983221201D112006F6D
:1000AF00120911AC82AD83AEF0FFC004C005C006CB
:1000BF00C00790666675F0667440120568AC82AD35
:1000CF0083AEF0FFE58124FCF581E4C0E074C0C08D
:1000DF00E0747FC0E07444C0E08C828D838EF0EFBB
:1000EF0012110AAC82AD83AEF0FFE58124FCF581DD
:1000FF008C828D838EF0EFC007C006C005C004123E
:10010F00082D12091D85821A85831B120911A882D9
:10011F00A983AAF0FBD004D005D006D007C000C039
:10012F0001C002C0038C828D838EF0EF1204F8ACF5
:10013F0082AD83AEF0FFE58124FCF581C004C005DC
:10014F00C006C00790000075F07A7444120568ACC1
:10015F0082AD83AEF0FFE58124FCF5818C828D8327
:10016F008EF0EF12082D12091DAE82AF83C006C0AC
:10017F0007C01AC01B747DC0E07413C0E07480C048
:10018F00E0740AC0E07400C0E07440C0E01207DF02
:10019F00E58124F6F58190000A75F0401202A690D1
:0B01AF0086A01201BA1202DE0200ACB2
:0A137D0056203A2025642E25640056
:08006400751F00E4F520F521F1
:1001BA00AE82AF837C007D00C3EC9EED9F50070C9E
:1001CA00BC00F50D80F222C2C0C2C1758030D2C215
:1001DA0090012C1201BAC2C29000641201BAD2C2B2
:1001EA0090012C1201BAC2C29000641201BAD2C2A2
:1001FA0090012C1201BAC2C29000641201BA758031
:10020A0038D2C29000641201BAC2C29000641201CC
:10021A00BA758008D2C290012C1201BAC2C29000EB
:10022A00641201BA758001D2C290012C1201BAC2BD
:10023A00C29000641201BA758006D2C290012C12D3
:10024A0001BAC2C29000641201BA75800CD2C2907F
:10025A00012C1201BAC2C29000641201BA751C00C4
:10026A0022AF827410B51C0C758210C0071202FDF1
:10027A00D007800F7420B51C0A758200C0071202CD
:10028A00FDD007D2C0C2C18F80D2C2900032120103
:10029A00BAC2C29000321201BA051C22AD82AE83E4
:1002AA00AFF0751D00E51D2DFAE43EFB8F048A822E
:1002BA008B838CF01211CDFC60198C82C007C006AA
:1002CA00C00512026BD005D006D007051D74E025C3
:1002DA001D50D222C2C0C2C1758001D2C290003262
:1002EA001201BAC2C29000641201BA751C002285BA
:1002FA001C8222AF8274E0251C403E8F1C74F025BC
:10030A001C401BAF1C74802FF580C2C0C2C1D2C270
:10031A009000641201BAC2C29000320201BAAF1C44
:10032A0074B02FF580C2C0C2C1D2C290006412015B
:10033A00BAC2C29000320201BA227401251F4004D7
:10034A00051F80F6D2A0D2A1D2A2D2A3751E0DC2D9
:10035A00A020A403751E0120A503751E0220A60372
:10036A00751E03D2A0C2A120A403751E0420A503F2
:10037A00751E0520A603751E06D2A1C2A220A403DB
:10038A00751E0720A503751E0820A603751E09D22F
:10039A00A2C2A320A403751E0A20A503751E00206D
:1003AA00A603751E0CD2A3851E8222AEF643060151
:1003BA008EF675F320AEF34306088EF3E5F3E47088
:1003CA00FB53F3EFAEF57F00EE2EFEEF33FFEE2E7A
:1003DA00FEEF33FFACF47D00EC2EF520ED3FF52166
:1003EA0085208285218322AE82AF83AC8943042093
:1003FA008C8953892FC29FD29EAC874304808C87F5
:10040A008E578F58755900755A0090F424E4F5F008
:10041A001206E0AC82C3E49CFC8C8DD29CD28E2264
:10042A0085829910990280FB22AD82AE83AFF07C5F
:10043A0000EC2DF9E43EFA8F0389828A838BF0124D
:10044A0011CDFB60188B82C007C006C005C004121C
:10045A00042AD004D005D006D0070C80D475820DAA
:10046A0012042A75820A02042A3098FD859982C2EA
:10047A00982285822485832585F0267C007B008B43
:10048A00017A00C3E99522EA64808523F063F0804B
:10049A0095F05044C004C003120473AA82D003D05A
:1004AA0004BA0D028003BA0A16EC2524F8E43525AD
:1004BA00F9AF26888289838FF0E412066C8019EBE3
:1004CA002524FDE43525FEAF268D828E838FF0EA42
:1004DA0012066C0B8B0480A7E5222524FDE5233543
:1004EA0025FEAF268D828E838FF0E402066CA881EA
:1004FA001818C6B2E7C6020687FB7A20E4FCFDFE9E
:10050A00FFE5822582F582E58333F583E5F033F54D
:10051A00F0EB33FB4017DAE98042E5822582F58267
:10052A00E58333F583E5F033F5F0EB33FBEC33FC8D
:10053A00ED33FDEE33FEEF33FFEC9557ED9558EEB4
:10054A009559EF955A4013EC9557FCED9558FDEEE9
:10055A009559FEEF955AFF438201DABEEB22120645
:10056A000BBC0003020949EF60FA30D502B2D1E5AB
:10057A0083B4FF0302095FE582B4FF0302095F2522
:10058A008340072482400B02094924831450030242
:10059A00095FF582EA8DF0A4A8F0EA8EF0A428F8A3
:1005AA00E435F0F9EB8DF0A428E935F0F9E433CA23
:1005BA008FF0A429F9EA35F0FAEBF88EF0A429F9BC
:1005CA00EA35F0FAE433FBEC8DF0A429F9EA35F0C8
:1005DA00FAE43BFBE88FF0A42AFAEB35F0FBE433AC
:1005EA00CCFD8EF0A42AFAEB35F0FBE43CFCED8F4F
:1005FA00F0A42BFBEC35F0FC20E7031206390209C4
:10060A0028AA82AB83A2F73392D1F5826002D2F78D
:10061A00ACF0E58124F9F8E6FD08E6FE0886F00864
:0F062A00E6A2F73392D5F5836002D2F7AFF02244
:06003500E478FFF6D8FD9F
:100639007804EC7011E58224F8500AF582E4C9CAFD
:10064900CBFCD8EF22EC7820058220E713D5820174
:1006590022C3E933F9EA33FAEB33FBEC33FCD8EA8A
:03066900158222D5
:100013007900E94400601B7A00901392780175A07F
:1000230000E493F2A308B8000205A0D9F4DAF2754C
:02003300A0FF2C
:10066C0020F71130F6138883A88220F509F6A883A9
:10067C007583002280FEF280F5F02212060B7900C1
:10068C00E583B58202800D50031210D8E583C39523
:10069C00821211FCE5D0C465D020E117EA2DFAEBEB
:1006AC003EFBEC3FFC500974011211FCEC4480FC45
:1006BC00020928C3EA9DFAEB9EFBEC9FFC500FC38A
:1006CC00E499F9E49AFAE49BFBE49CFCB2D112069F
:0406DC0039020928AE
:10003B007800E84400600A790175A000E4F309D860
:10004B00FC7800E84400600C7900900001E4F0A318
:04005B00D8FCD9FAFA
:1006E000FBC2D530E715D2D5E4C39582F582E495F7
:1006F00083F583E495F0F5F0E49BFBE55A30E717CA
:10070000B2D5E4C39557F557E49558F558E4955993
:10071000F559E4955AF55AEB12050330D513FBE46D
:10072000C39582F582E49583F583E495F0F5F0E4D2
:100730009B22C02E85812EC082058105810581E521
:100740002E24FBF8A92E0909E6F70809E6F708099F
:10075000E6F7A82E080886820886830886F012111C
:10076000CDFAA31211CDFBA31211CDFF74012AFC07
:10077000E43BFD8F06A82E0808868208868308863B
:10078000F0EC12066CA3ED12066CA3EE12066C8A56
:10079000828B838FF0A82E08E612066C852E81D0FE
:1007A0002E2285822B85832C85F02D753C2B753D63
:1007B00000753E4085273F852840852941852A428E
:1007C000900732120A1BAE82AF83AB2BAC2CAD2D3F
:1007D0008B828C838DF0E412066C8E828F8322C014
:1007E0002E85812EE52E24F8FF8F42E52E24FBFF77
:1007F0008F3C753D00753E40E52E24F8F8863F0895
:100800008640088641900732120A1BAE82AF83E50C
:100810002E24FBF886030886040886058B828C83C9
:100820008DF0E412066C8E828F83D02E22C02E852E
:10083000812EC082C083C0F0C0E0E5812404F58130
:10084000A82E0886820886830886F008E612123FE2
:10085000AC82AD83AEF0FFE52E2405F8A60408A611
:100860000508A60608A607E52E2405F8C3E496E4C5
:100870000896E4089674800886F063F08095F0404E
:1008800071E52E2405F886820886830886F008E63E
:1008900012129AAC82AD83AEF0FFC004C005C00650
:1008A000C007A82E0886820886830886F008E6120C
:1008B0001304AF82E58124FCF581EF60067EFF7FA3
:1008C000FF80047E007F00EF3395E0FDFCE52E24E1
:1008D00005F8EE26FEEF0836FFED0836FDEC08368B
:1008E0008E828F838DF012129AAC82AD83AEF0FFB0
:1008F0008019E52E2405F886820886830886F0088C
:10090000E612129AAC82AD83AEF0FF852E81D02E16
:1009100022E4AC83AB82FAF9748E0211F27F8E125C
:1009200012DFF58385F08222B98003EA13B3401009
:10093000EA2401FAE43BFBE43CFC50047C800582A1
:10094000BC000EBB000BBA0008E4F5F0F583F5829D
:1009500022A2D1E582138CF092F78B838A8222E463
:10096000F583F58275F080F4A2D11322E4F583F5C6
:100970008275F0C0747F22AF82C032C033C034129F
:1009800009848007C030C0318F82221581158115FE
:1009900081053AE4B53A02053B22AF8274302FFF5D
:1009A00024C6501174072FFFE52F60098F057E00C4
:1009B0004305208D078F82020977E582FFC4540F1B
:1009C000F582C00712099AD007740F5FF5820209F9
:1009D0009A858257AB35AC36AD37AE38AA397559E2
:1009E000208A07EF2FF558EE2354014558FAEB2BD8
:1009F000FBEC33FCED33FDEE33FEC3EA95574008C4
:100A0000EAC39557FA430301E55914FF8F5970D192
:100A10008B358C368D378E388A39228582308583A6
:100A200031853C32853D33853E34E4F53AF53BADC6
:100A30003FAE40AF418D828E838FF01211CDFC749A
:100A4000012DF53FE43EF5408F41ECFF70030210AD
:100A5000D1BF250280030210C97E007D008E438E27
:100A6000447A007B008E457C008E468E4C7547FF95
:100A7000853F4D85404E85414F854D82854E83850E
:100A80004FF01211CDF550A385824D85834E854DD3
:100A90003F854E40854F417425B5500885508212E0
:100AA0000977808B74D025505039E55024C64033E7
:100AB00074FFB5471AE54CF55175F00AA4F551E5F8
:100AC00050F552255124D0F54C70AE7D0180AAE539
:100AD0004775F00AA4F552E550F551255224D0F59A
:100AE000478096742EB5500A74FFB5478C75470041
:100AF0008087749F2550500EE55024854008535040
:100B0000DF752F018003752F007420B55003020B91
:100B1000A4742BB55003020B9E742DB5500280793E
:100B20007442B55003020BAA7443B55003020BB5CF
:100B30007444B55003020DC67446B55003020DDC73
:100B40007448B55003020A797449B55003020DC6C2
:100B5000744AB55003020A79744CB550028050743F
:100B60004FB55003020DCD7450B55003020D1174F2
:100B700053B5500280767454B55003020A79745507
:100B8000B55003020DD27458B55003020DD7745AF4
:100B9000B55003020A79020DE07E01020A7975431D
:100BA00001020A79754401020A797B01020A79750A
:100BB0004501020A79EB600AE54214F9894287523D
:100BC000800DE54224FEF551855142A95187528599
:100BD0005282C006C005C004C003C002120977D00B
:100BE00002D003D004D005D006020DFFE54224FD5B
:100BF000F552855242A952874D09874E09874F19F0
:100C000019854D35854E36854F37854D82854E8306
:100C1000854FF0C006C005C004C003C0021210F228
:100C200085824D85834ED002D003D004D005D006F6
:100C3000854D5274FFB54703855247EE7036C3E5C4
:100C400052954C502FE54CC39552F55185514D1599
:100C500051E54D601C758220C006C005C004C0036C
:100C6000C002120977D002D003D004D005D006808C
:100C7000DB85514C8547518535828536838537F034
:100C80001211CDF54D854D49604885514D1551C323
:100C90007480854DF063F08095F05036854982C0B0
:100CA00006C005C004C003C002120977D002D003F9
:100CB000D004D005D00685354D85364E85374F0595
:100CC0004DE4B54D02054E854D35854E36854F3781
:100CD00080A5EE7003020DFFC3E552954C40030260
:100CE0000DFFE54CC39552F5528552511552E55111
:100CF0007003020DFC758220C006C005C004C0034D
:100D0000C002120977D002D003D004D005D00680EB
:100D1000D8E54224FDF551855142A951874D0987F7
:100D20004E09874F1919854D35854E36854F3785C4
:100D3000374A7480254A5005755143801974A0259F
:100D40004A5005755150800E74C0254A50057551A2
:100D5000498003755158855182C006C005C004C042
:100D600003C00212097775823A1209777582301230
:100D70000977758278120977D002D003D004D005A4
:100D8000D0067449B5510280217450B55102801AC1
:100D9000853682C006C005C004C003C0021209BA6D
:100DA000D002D003D004D005D006853582C006C05D
:100DB00005C004C003C0021209BAD002D003D00497
:100DC000D005D00680397A0175460A80327546080A
:100DD000802D75460A802875461080237C01801F6F
:100DE000855082C006C005C004C003C00212097746
:100DF000D002D003D004D005D006800385524CEC3D
:100E00006068E54224FCFC8C428C018753098754BE
:100E1000098755098756191919855335855436851B
:100E2000553785563875358775361375378085354E
:100E30005385365485375574012553F54DE43554A3
:100E4000F54E85554F854D35854E36854F37855343
:100E5000828554838555F01211CDFC8C53700302AA
:100E60000A2F85538212097780C4E5467003020A6F
:100E70002FEB603FE54214F9894287048C53755487
:100E800000755500755600855335855436855537A0
:100E9000855638EA6003020F1C853553755400757A
:100EA000550075560085533585543685553785561A
:100EB000388069E5456025E54224FCFC8C428C01C4
:100EC0008753098754098755098756191919855376
:100ED000358554368555378556388040E54224FEA1
:100EE000FC8C428C018703098704198B53ECF55461
:100EF0003395E0F555F55685533585543685553788
:100F0000855638EA7016853553853654F555F556AD
:100F1000855335855436855537855638EA602AE538
:100F20003830E723C3E49535F553E49536F554E4BA
:100F30009537F555E49538F55685533585543685FE
:100F4000553785563880027A007C0179607B0075C0
:100F50003900854682C006C005C004C003C002C077
:100F6000011209D1D001D002D003D004D005D0069F
:100F7000EC7010C003E539C4F553E74553F719D0B9
:100F8000038002A7390BECB40100E433FCE53545DE
:100F9000364537453870B8894B8B48E54C7003753A
:100FA0004C01ED702CEE7029854C53AB480BC3EB14
:100FB0009553501A758220C006C005C004C00212A5
:100FC0000977D002D004D005D006155380DD8553B3
:100FD0004CEA601675822DC006C005C00412097760
:100FE000D004D005D006154C8036E5486032E54384
:100FF000601675822BC006C005C004120977D004A4
:10100000D005D006154C8018E5446014758220C0C8
:1010100006C005C004120977D004D005D006154CCF
:10102000EE7034AB4C8B021BC3E5489A503CED602C
:10103000087553307554008006755320755400852B
:101040005382C006C005C004C003120977D003D084
:1010500004D005D00680CEC3E548954C5008E54C39
:10106000C39548FD80067D0080028B05A94BAB48E7
:101070008B021BEA6036ECB40100E433FC700A0911
:10108000E7C4540FFA8A3980078702740F5AF5397A
:10109000853982C006C005C004C003C00112099A88
:1010A000D001D003D004D005D00680C4EE70030276
:1010B0000A2F8D068E051EED7003020A2F75822001
:1010C000C006120977D00680EB8F82120977020AD8
:0810D0002F853A82853B832243
:0B1387003C4E4F20464C4F41543E00AE
:1010D800E582C583F582A2D133A2D592D11392D5E8
:1010E800ECCFFCEBCEFBEACDFA22AA82AB8312113D
:1010F800CD6003A380F8C3E5829AF582E5839BF56A
:10110800832212060B30D502B2D1BF0009BC0003FE
:1011180002096C02095FBC0003020949E583B4FFB8
:101128000BE582B4FF0302096C020949E582B4FFAA
:101138000302095FC395835007247F400B020949C6
:10114800248014500302095FF582C3ED9AEE9BEFE9
:101158009C40111582C3EA33F9EB33FAEC33FBE414
:1011680033FC8005E4CCCBCAF9C08275F019C3E919
:101178009DEA9EEB9FEC9400D5F002802D400EE98D
:101188009DF9EA9EFAEB9FFBEC9400FCC3B3E833AD
:10119800F8E58233F582E58333F583C3E933F9EA69
:1011A80033FAEB33FBEC33FC80C4B3E4F938FAE4EC
:1011B8003582FBE43583FCD082500405827C8012A2
:0511C800063902094098
:0D0006007581601212C7E5826003020003DD
:1011CD0020F71430F6148883A88220F507E6A8834B
:1011DD0075830022E280F7E49322E022FCABF0AAB3
:1011ED0083A982749EC2D1F5821206390209286044
:1011FD0040F82582500274FFF582E824F8501ECC89
:10120D00CBCAF9E4CC24F85014CBCAF9E4CB24F8BA
:10121D00500BCAF9E4CA24F850037900222408605F
:10122D0010F8C3EC13FCEB13FBEA13FAE913F9D82E
:10123D00F1221212CBC3749E95824039790012119E
:10124D00FC30D126E9F42401F582EAF43400F5836B
:10125D00EBF43400F5F0ECF43400700AE5824583CC
:10126D0045F0700122E430E70F22EC20E71489826B
:10127D008A838BF02230D10AE4F582F583F5F07480
:10128D00802274FFF582F583F5F0747F22FCABF0BC
:10129D00AA83A982749EF582C2D1EC30E716D2D111
:1012AD00E9F42401F9EAF43400FAEBF43400FBEC30
:1012BD00F43400FC12063902092875820022AA8234
:1012CD00AB83A2F73392D1F5826002D2F7ACF02254
:1012DD007F9E1212CB30D103020949C3EF95825084
:1012ED000974FFF5F0F583F5822279001211FC895E
:1012FD00828A838BF0EC22FFA8811818121352D228
:10130D00D133E6400730E70B7582002220E70675E2
:10131D00820122C2D1121334E97003F5822220D149
:10132D0001B3E433F582227901AA82E68F82B58278
:10133D001318E6B5F00E18E6B5830918E68A82B5DE
:10134D008202790022B4800FE5F0700AE583700601
:10135D00E58270027F00EFB6801518B6001018B642
:10136D00000B18B6000608080876002208080822A7
:00000001FF
