:060000000200090200727B
:05006200E4F508F509BA
:03006F0002000686
:030006000200866F
:20007200C0E0C0D074012508F508E43509F509D0D0D0E03275A88175E8007588011200E210
:200092001201EFC008C009746FC0E0740DC0E07480C0E0740AC0E07400C0E07440C0E012EB
:1900B2000588E58124F8F58190000A75F0401201B79027101200CB80C7BC
:030D6F00256400F8
:08006700751D00E4F51EF51FF4
:2000CB00AE82AF837C007D00C3EC9EED9F50070CBC00F50D80F222C2C0C2C1758030D2C26E
:2000EB0090012C1200CBC2C29000641200CBD2C290012C1200CBC2C29000641200CBD2C2EF
:20010B0090012C1200CBC2C29000641200CB758038D2C29000641200CBC2C29000641200C9
:20012B00CB758008D2C290012C1200CBC2C29000641200CB758001D2C290012C1200CBC283
:20014B00C29000641200CB758006D2C290012C1200CBC2C29000641200CB75800CD2C2905E
:20016B00012C1200CBC2C29000641200CB751A0022AF827410B51A0C758210C00712020EE4
:20018B00D007800F7420B51A0A758200C00712020ED007D2C0C2C18F80D2C290003212003E
:2001AB00CBC2C29000321200CB051A22AD82AE83AFF0751B00E51B2DFAE43EFB8F048A8293
:2001CB008B838CF0120D4FFC60198C82C007C006C00512017CD005D006D007051B74E0259D
:2001EB001B50D222C2C0C2C1758001D2C29000321200CBC2C29000641200CB751A002285DC
:20020B001A8222AF8274E0251A403E8F1A74F0251A401BAF1A74802FF580C2C0C2C1D2C232
:20022B009000641200CBC2C29000320200CBAF1A74B02FF580C2C0C2C1D2C290006412009F
:20024B00CBC2C29000320200CB227401251D4004051D80F6D2A0D2A1D2A2D2A3751C0DC2D2
:20026B00A020A403751C0120A503751C0220A603751C03D2A0C2A120A403751C0420A503C9
:20028B00751C0520A603751C06D2A1C2A220A403751C0720A503751C0820A603751C09D291
:2002AB00A2C2A320A403751C0A20A503751C0020A603751C0CD2A3851C8222AEF643060163
:2002CB008EF675F320AEF34306088EF3E5F3E470FB53F3EFAEF57F00EE2EFEEF33FFEE2EBF
:2002EB00FEEF33FFACF47D00EC2EF51EED3FF51F851E82851F8322AE82AF83AC89430420DE
:20030B008C8953892FC29FD29EAC874304808C878E558F5675570075580090F424E4F5F002
:20032B00120489AC82C3E49CFC8C8DD29CD28E2285829910990280FB22AD82AE83AFF07C3A
:20034B0000EC2DF9E43EFA8F0389828A838BF0120D4FFB60188B82C007C006C005C0041229
:20036B00033BD004D005D006D0070C80D475820D12033B75820A02033B3098FD859982C2C2
:20038B00982285822285832385F0247C007B008B017A00C3E99520EA64808521F063F08016
:2003AB0095F05044C004C003120384AA82D003D004BA0D028003BA0A16EC2522F8E4352399
:2003CB00F9AF24888289838FF0E412046E8019EB2522FDE43523FEAF248D828E838FF0EAEB
:1E03EB0012046E0B8B0480A7E5202522FDE5213523FEAF248D828E838FF0E402046E40
:20040900FB7A20E4FCFDFEFFE5822582F582E58333F583E5F033F5F0EB33FB4017DAE9802C
:2004290042E5822582F582E58333F583E5F033F5F0EB33FBEC33FCED33FDEE33FEEF33FF5B
:20044900EC9555ED9556EE9557EF95584013EC9555FCED9556FDEE9557FEEF9558FF4382BD
:0504690001DABEEB22E8
:06003800E478FFF6D8FD9C
:200016007900E94400601B7A00900D7D780175A000E493F2A308B8000205A0D9F4DAF27506
:02003600A0FF29
:1B046E0020F71130F6138883A88220F509F6A8837583002280FEF280F5F0228D
:20003E007800E84400600A790175A000E4F309D8FC7800E84400600C7900900001E4F0A3C0
:04005E00D8FCD9FAF7
:20048900FBC2D530E715D2D5E4C39582F582E49583F583E495F0F5F0E49BFBE55830E71712
:2004A900B2D5E4C39555F555E49556F556E49557F557E49558F558EB12040930D513FBE47C
:1204C900C39582F582E49583F583E495F0F5F0E49B226D
:2004DB00C02C85812CC082058105810581E52C24FBF8A92C0909E6F70809E6F70809E6F747
:2004FB00A82C080886820886830886F0120D4FFAA3120D4FFBA3120D4FFF74012AFCE43B28
:20051B00FD8F06A82C080886820886830886F0EC12046EA3ED12046EA3EE12046E8A828B83
:20053B00838FF0A82C08E612046E852C81D02C2285822985832A85F02B753A29753B007509
:20055B003C4085253D85263E85273F8528409004DB12067AAE82AF83AB29AC2AAD2B8B826A
:20057B008C838DF0E412046E8E828F8322C02C85812CE52C24F8FF8F40E52C24FBFF8F3A17
:20059B00753B00753C40E52C24F8F8863D08863E08863F9004DB12067AAE82AF83E52C2486
:1B05BB00FBF886030886040886058B828C838DF0E412046E8E828F83D02C2243
:2005D600AF82C030C031C0321205E38007C02EC02F8F82221581158115810538E4B538029E
:2005F600053922AF8274302FFF24C6501174072FFFE52D60098F057E004305208D078F82F4
:200616000205D6E582FFC4540FF582C0071205F9D007740F5FF5820205F9858255AB33ACF6
:2006360034AD35AE36AA377557208A07EF2FF556EE2354014556FAEB2BFBEC33FCED33FD9F
:20065600EE33FEC3EA95554008EAC39555FA430301E55714FF8F5770D18B338C348D358E6A
:20067600368A372285822E85832F853A30853B31853C32E4F538F539AD3DAE3EAF3F8D82FA
:200696008E838FF0120D4FFC74012DF53DE43EF53E8F3FECFF7003020D30BF25028003024B
:2006B6000D287E007D008E418E427A007B008E437C008E448E4A7545FF853D4B853E4C850F
:2006D6003F4D854B82854C83854DF0120D4FF54EA385824B85834C854B3D854C3E854D3FE9
:2006F6007425B54E08854E821205D6808B74D0254E5039E54E24C6403374FFB5451AE54A6D
:20071600F54F75F00AA4F54FE54EF550254F24D0F54A70AE7D0180AAE54575F00AA4F550C1
:20073600E54EF54F255024D0F5458096742EB54E0A74FFB5458C7545008087749F254E5034
:200756000EE54E24854008534EDF752D018003752D007420B54E03020803742BB54E0302BB
:2007760007FD742DB54E0280797442B54E030208097443B54E030208147444B54E03020A4C
:20079600257446B54E03020A3B7448B54E030206D87449B54E03020A25744AB54E030206B5
:2007B600D8744CB54E028050744FB54E03020A2C7450B54E030209707453B54E028076743A
:2007D60054B54E030206D87455B54E03020A317458B54E03020A36745AB54E030206D802F3
:2007F6000A3F7E010206D87541010206D87542010206D87B010206D87543010206D8EB60CC
:200816000AE54014F989408750800DE54024FEF54F854F40A94F8750855082C006C005C049
:2008360004C003C0021205D6D002D003D004D005D006020A5EE54024FDF550855040A95005
:20085600874B09874C09874D1919854B33854C34854D35854B82854C83854DF0C006C005C3
:20087600C004C003C002120D3785824B85834CD002D003D004D005D006854B5074FFB5456C
:2008960003855045EE7036C3E550954A502FE54AC39550F54F854F4B154FE54B601C7582FA
:2008B60020C006C005C004C003C0021205D6D002D003D004D005D00680DB854F4A85454F8B
:2008D6008533828534838535F0120D4FF54B854B476048854F4B154FC37480854BF063F028
:2008F6008095F05036854782C006C005C004C003C0021205D6D002D003D004D005D006859F
:20091600334B85344C85354D054BE4B54B02054C854B33854C34854D3580A5EE7003020A0F
:200936005EC3E550954A4003020A5EE54AC39550F55085504F1550E54F7003020A5B758215
:2009560020C006C005C004C003C0021205D6D002D003D004D005D00680D8E54024FDF54F9A
:20097600854F40A94F874B09874C09874D1919854B33854C34854D358535487480254850D6
:2009960005754F43801974A025485005754F50800E74C025485005754F498003754F5885FD
:2009B6004F82C006C005C004C003C0021205D675823A1205D67582301205D67582781205D7
:2009D600D6D002D003D004D005D0067449B54F0280217450B54F02801A853482C006C00579
:2009F600C004C003C002120619D002D003D004D005D006853382C006C005C004C003C00235
:200A1600120619D002D003D004D005D00680397A0175440A8032754408802D75440A8028E9
:200A360075441080237C01801F854E82C006C005C004C003C0021205D6D002D003D004D0B9
:200A560005D006800385504AEC6068E54024FCFC8C408C018751098752098753098754191B
:200A7600191985513385523485533585543675337275340D753580853351853452853553E3
:200A960074012551F54BE43552F54C85534D854B33854C34854D358551828552838553F0BB
:200AB600120D4FFC8C51700302068E8551821205D680C4E544700302068EEB603FE5401452
:200AD600F9894087048C51755200755300755400855133855234855335855436EA600302FF
:200AF6000B7B8533517552007553007554008551338552348553358554368069E543602533
:200B1600E54024FCFC8C408C01875109875209875309875419191985513385523485533538
:200B36008554368040E54024FEFC8C408C018703098704198B51ECF5523395E0F553F554B5
:200B5600855133855234855335855436EA7016853351853452F553F55485513385523485A1
:200B76005335855436EA602AE53630E723C3E49533F551E49534F552E49535F553E49536B1
:200B9600F55485513385523485533585543680027A007C01795E7B00753700854482C0063E
:200BB600C005C004C003C002C001120630D001D002D003D004D005D006EC7010C003E537C8
:200BD600C4F551E74551F719D0038002A7370BECB40100E433FCE53345344535453670B8C8
:200BF60089498B46E54A7003754A01ED702CEE7029854A51AB460BC3EB9551501A75822099
:200C1600C006C005C004C0021205D6D002D004D005D006155180DD85514AEA601675822D08
:200C3600C006C005C0041205D6D004D005D006154A8036E5466032E541601675822BC0068D
:200C5600C005C0041205D6D004D005D006154A8018E5426014758220C006C005C00412057A
:200C7600D6D004D005D006154AEE7034AB4A8B021BC3E5469A503CED600875513075520055
:200C96008006755120755200855182C006C005C004C0031205D6D003D004D005D00680CE14
:200CB600C3E546954A5008E54AC39546FD80067D0080028B05A949AB468B021BEA6036EC23
:200CD600B40100E433FC700A09E7C4540FFA8A3780078702740F5AF537853782C006C00508
:200CF600C004C003C0011205F9D001D003D004D005D00680C4EE700302068E8D068E051EE4
:200D1600ED700302068E758220C0061205D6D00680EB8F821205D602068E853882853983A8
:010D3600229A
:0B0D72003C4E4F20464C4F41543E00C9
:180D3700AA82AB83120D4F6003A380F8C3E5829AF582E5839BF5832286
:0D00090075815E120D6BE58260030200063A
:1C0D4F0020F71430F6148883A88220F507E6A88375830022E280F7E49322E022B3
:040D6B00758200226B
:00000001FF
