:10000000781479587A597B231130758901758C3CA5
:10001000758AB0D28C308DFDC28CC28DD8EF758CB4
:100020003C758AB0D28C7813B2A3114911850115A1
:10003000743011A211BC740C11A211BC740111A274
:1000400011C1740611A211BC22E92401D4F9B460D3
:10005000167900EA2401D4FAB4600C7A00EB24018A
:10006000D4FBB424027B002203030303540F443067
:1000700011AF11BC22540F443011AF11BC22743A9D
:1000800011AF11BC22740111A211C1EB1168EB1167
:1000900075117EEA1168EA1175117EE91168E9119E
:1000A0007522F590C2A0C2A1D2A211BCC2A222F5B3
:1000B00090D2A0C2A1D2A211BCC2A2227D1EDDFE9E
:0A00C000227D327C32DCFEDDFA22E4
:00000001FF
