:03000000020030CB
:03000B00020100EF
:10003000781479587A597B23114F758901758C3C56
:10004000758AB0D2A9D2AFD28C116811F701497468
:100050003011CF11E9740C11CF11E9740111CF11D6
:10006000EE740611CF11E922740111CF11EEEBC429
:10007000540F443011DC11E9EB540F443011DC1102
:10008000E9743A11DC11E9EAC4540F443011DC116F
:10009000E9EA540F443011DC743A11DC11E9E9C487
:1000A000540F443011DC11E9E9540F443011DC22C3
:1000B000E92401D4F9B460167900EA2401D4FAB431
:1000C000600C7A00EB2401D4FBB424027B0022F5FF
:1000D00090C2A0C2A1D2A211E9C2A222F590D2A0E0
:1000E000C2A1D2A211E9C2A2227D1EDDFE227D3272
:1000F0007C32DCFEDDFA227DFA7CFADCFEDDFA22BF
:10010000C28CC28D758C3C758AB0D28CD80678149E
:05011000B2A311B032A2
:00000001FF
