:03000000020006F5
:0300670002000391
:0300030002006A8E
:08006A001201FC85829080F870
:08005F00750B00E4F50CF50D32
:10007200AE82AF837C007D00C3EC9EED9F50070CE7
:10008200BC00F50D80F222C2C0C2C1758030D2C25E
:1000920090012C120072C2C2900064120072D2C28D
:1000A20090012C120072C2C2900064120072D2C27D
:1000B20090012C120072C2C290006412007275800C
:1000C20038D2C2900064120072C2C2900064120060
:1000D20072758008D2C290012C120072C2C29000C6
:1000E20064120072758001D2C290012C120072C299
:1000F200C2900064120072758006D2C290012C1266
:100102000072C2C290006412007275800CD2C2905A
:10011200012C120072C2C2900064120072750800B3
:1001220022AF827410B5080C758210C0071201B597
:10013200D007800F7420B5080A758200C00712012B
:10014200B5D007D2C0C2C18F80D2C2900032120095
:1001520072C2C2900032120072050822AD82AE83D2
:10016200AFF0750900E5092DFAE43EFB8F048A829F
:100172008B838CF0120482FC60198C82C007C0064B
:10018200C005120123D005D006D007050974E02569
:100192000950D222C2C0C2C1758001D2C2900032BF
:1001A200120072C2C29000641200727508002285A9
:1001B200088222AF8274E02508403E8F0874F02541
:1001C20008401BAF0874802FF580C2C0C2C1D2C2E2
:1001D200900064120072C2C2900032020072AF0834
:1001E20074B02FF580C2C0C2C1D2C29000641200A6
:1001F20072C2C2900032020072227401250B4004C6
:10020200050B80F6D2A0D2A1D2A2D2A3750A0DC24A
:10021200A020A403750A0120A503750A0220A603E3
:10022200750A03D2A0C2A120A403750A0420A50363
:10023200750A0520A603750A06D2A1C2A220A4034C
:10024200750A0720A503750A0820A603750A09D2B4
:10025200A2C2A320A403750A0A20A503750A0020DE
:10026200A603750A0CD2A3850A8222AEF6430601C2
:100272008EF675F320AEF34306088EF3E5F3E470D1
:10028200FB53F3EFAEF57F00EE2EFEEF33FFEE2EC3
:10029200FEEF33FFACF47D00EC2EF50CED3FF50DD7
:1002A200850C82850D8322AE82AF83AC8943042004
:1002B2008C8953892FC29FD29EAC874304808C873E
:1002C2008E138F1475150075160090F424E4F5F062
:1002D200120430AC82C3E49CFC8C8DD29CD28E2260
:1002E20085829910990280FB22AD82AE83AFF07CA9
:1002F20000EC2DF9E43EFA8F0389828A838BF01297
:100302000482FB60188B82C007C006C005C00412BD
:1003120002E2D004D005D006D0070C80D475820D3D
:100322001202E275820A0202E23098FD859982C2C7
:10033200982285821085831185F0127C007B008BC8
:10034200017A00C3E9950EEA6480850FF063F080BC
:1003520095F05044C004C00312032BAA82D003D0EC
:1003620004BA0D028003BA0A16EC2510F8E435111E
:10037200F9AF12888289838FF0E41204158019EB99
:100382002510FDE43511FEAF128D828E838FF0EAC7
:100392001204150B8B0480A7E50E2510FDE50F3521
:1003A20011FEAF128D828E838FF0E4020415FB7A68
:1003B20020E4FCFDFEFFE5822582F582E58333F52C
:1003C20083E5F033F5F0EB33FB4017DAE98042E5E1
:1003D200822582F582E58333F583E5F033F5F0EB90
:1003E20033FBEC33FCED33FDEE33FEEF33FFEC95E4
:1003F20013ED9514EE9515EF95164013EC9513FC3D
:10040200ED9514FDEE9515FEEF9516FF438201DA88
:03041200BEEB221C
:06003500E478FFF6D8FD9F
:100013007900E94400601B7A009004A2780175A07E
:1000230000E493F2A308B8000205A0D9F4DAF2754C
:02003300A0FF2C
:1004150020F71130F6138883A88220F509F6A88302
:0B0425007583002280FEF280F5F022BB
:10003B007800E84400600A790175A000E4F309D860
:10004B00FC7800E84400600C7900900001E4F0A318
:04005B00D8FCD9FAFA
:10043000FBC2D530E715D2D5E4C39582F582E495A9
:1004400083F583E495F0F5F0E49BFBE51630E717C0
:10045000B2D5E4C39513F513E49514F514E495159A
:10046000F515E49516F516EB1203B030D513FBE441
:10047000C39582F582E49583F583E495F0F5F0E485
:020480009B22BD
:0D00060075811612049EE58260030200035E
:1004820020F71430F6148883A88220F507E6A883A3
:1004920075830022E280F7E49322E0227582002233
:00000001FF
