:03000000020006F5
:10005F00E4F53EF53FE4F518F519F528F529F52AED
:02006F00F52B6F
:030079000200037F
:03000300020128CF
:10007C0085823985833A85F03BAA30AB31AC328A24
:10008C00828B838CF0121361F53CA3121361F53D46
:10009C00E5332533FEE53433FFEE2539FEEF353AF3
:1000AC00FFAD3B8E828F838DF0121361F8A3121378
:1000BC0061F9E53CC398F8E53D99F9E53728F8E591
:1000CC003839F98A828B838CF0E81208E4A3E912A0
:1000DC0008E48E828F838DF0E5371208E4A3E538AF
:1000EC001208E485357B85367C8882898302075229
:1000FC0075F60175F36853F36FAEF57F00EE2EFEC7
:10010C00EF33FFEE2EFEEF33FFACF47D00EC2EF55B
:10011C003EED3FF53F853E82853F8322120420123F
:10012C0000FC858222858323753028753100753259
:10013C0040852A33852B3475350575360085223775
:10014C0085233890001875F04012007C858222853A
:10015C008323052AE4B52A02052BC3E52A9405E579
:10016C002B94004005E4F52AF52BC3E522949DE57C
:10017C0023940250030202A8852282852383120A4B
:10018C00A5AC82AD83AEF0FFE4C0E07480C0E07437
:10019C00D2C0E07443C0E08C828D838EF0EF1207E6
:1001AC0047AC82AD83AEF0FFE58124FCF5818C82F7
:1001BC008D838EF0EFC007C006C005C004120AB1D3
:1001CC00120AA5A882A983AAF0FB74CDC0E014C0C2
:1001DC00E0C0E07440C0E0888289838AF0EB1212A0
:1001EC009EA882A983AAF0FBE58124FCF581888274
:1001FC0089838AF0EB120AB1858224858325D00489
:10020C00D005D006D00774CDC0E014C0E0C0E074B7
:10021C0040C0E08C828D838EF0EF12129EAC82ADCA
:10022C0083AEF0FFE58124FCF5818524828525834E
:10023C00C007C006C005C004120AA5A882A983AADB
:10024C00F0FBD004D005D006D007C000C001C0021E
:10025C00C0038C828D838EF0EF120747AC82AD8386
:10026C00AEF0FFE58124FCF581C004C005C006C0DA
:10027C000790000075F0C874421207E0AC82AD83A1
:10028C00AEF0FFE58124FCF5818C828D838EF0EF3E
:10029C00120AB18582268583270203CB85228285AB
:1002AC002383120AA5AC82AD83AEF0FFE4C0E0C09C
:1002BC00E07452C0E07443C0E08C828D838EF0EF0A
:1002CC00120747AC82AD83AEF0FFE58124FCF581CB
:1002DC008C828D838EF0EFC007C006C005C004125F
:1002EC000AB1120AA5A882A983AAF0FB74CDC0E0BA
:1002FC0014C0E0743CC0E07441C0E0888289838AF9
:10030C00F0EB12129EA882A983AAF0FBE58124FCD3
:10031C00F581888289838AF0EB120AB18582248563
:10032C008325D004D005D006D00774CDC0E014C00E
:10033C00E0743CC0E07441C0E08C828D838EF0EFA1
:10034C0012129EAC82AD83AEF0FFE58124FCF581E8
:10035C00852482852583C007C006C005C004120A07
:10036C00A5A882A983AAF0FBD004D005D006D0079B
:10037C00C000C001C002C0038C828D838EF0EF12CE
:10038C000747AC82AD83AEF0FFE58124FCF581C05C
:10039C0004C005C006C00790000075F0C874421276
:1003AC0007E0AC82AD83AEF0FFE58124FCF5818CD7
:1003BC00828D838EF0EF120AB1858226858327C049
:1003CC0026C027C024C0257410C0E07414C0E0748B
:1003DC0080C0E07408C0E07400C0E07440C0E0125B
:1003EC000A57E58124F6F58190000875F040120457
:0D03FC00F59086A012040912052D02012BB8
:09141000543A2025642E256400E5
:08007100754300E4F544F54578
:10040900AE82AF837C007D00C3EC9EED9F50070C4C
:10041900BC00F50D80F222C2C0C2C1758030D2C2C3
:1004290090012C120409C2C2900064120409D2C2BC
:1004390090012C120409C2C2900064120409D2C2AC
:1004490090012C120409C2C290006412040975803B
:1004590038D2C2900064120409C2C2900064120426
:1004690009758008D2C290012C120409C2C29000F9
:1004790064120409758001D2C290012C120409C2C8
:10048900C2900064120409758006D2C290012C1230
:100499000409C2C290006412040975800CD2C2908A
:1004A900012C120409C2C2900064120409754000AB
:1004B90022AF827410B5400C758210C00712054C2A
:1004C900D007800F7420B5400A758200C007120555
:1004D9004CD007D2C0C2C18F80D2C2900032120460
:1004E90009C2C2900032120409054022AD82AE83CE
:1004F900AFF0754100E5412DFAE43EFB8F048A8295
:100509008B838CF0121361FC60198C82C007C006C2
:10051900C0051204BAD005D006D007054174E025FC
:100529004150D222C2C0C2C1758001D2C2900032EC
:10053900120409C2C29000641204097540002285A0
:10054900408222AF8274E02540403E8F4074F025FE
:1005590040401BAF4074802FF580C2C0C2C1D2C2D7
:10056900900064120409C2C2900032020409AF402B
:1005790074B02FF580C2C0C2C1D2C2900064120407
:1005890009C2C290003202040922740125434004C1
:10059900054380F6D2A0D2A1D2A2D2A375420DC240
:1005A900A020A40375420120A50375420220A603D9
:1005B900754203D2A0C2A120A40375420420A50359
:1005C90075420520A603754206D2A1C2A220A40342
:1005D90075420720A50375420820A603754209D272
:1005E900A2C2A320A40375420A20A50375420020D4
:1005F900A60375420CD2A385428222AEF6430601B8
:100609008EF675F320AEF34306088EF3E5F3E47036
:10061900FB53F3EFAEF57F00EE2EFEEF33FFEE2E28
:10062900FEEF33FFACF47D00EC2EF544ED3FF545CC
:1006390085448285458322AE82AF83AC89430420F9
:100649008C8953892FC29FD29EAC874304808C87A3
:100659008E7B8F7C757D00757E0090F424E4F5F027
:10066900120958AC82C3E49CFC8C8DD29CD28E2298
:1006790085829910990280FB22AD82AE83AFF07C0E
:1006890000EC2DF9E43EFA8F0389828A838BF012FC
:100699001361FB60188B82C007C006C005C0041235
:1006A9000679D004D005D006D0070C80D475820D08
:1006B90012067975820A0206793098FD859982C2F7
:1006C900982285824885834985F04A7C007B008B86
:1006D900017A00C3E99546EA64808547F063F080B2
:1006E90095F05044C004C0031206C2AA82D003D0B8
:1006F90004BA0D028003BA0A16EC2548F8E4354914
:10070900F9AF4A888289838FF0E41208E48019EBF3
:100719002548FDE43549FEAF4A8D828E838FF0EA84
:100729001208E40B8B0480A7E5462548FDE547350B
:1007390049FEAF4A8D828E838FF0E40208E4A881D6
:100749001818C6B2E7C60208FF7A10E4FBFCE58276
:1007590025E0F582E58333F583EB33FBEC33FCEBE2
:10076900957BF5F0EC957C4006FCABF0438201DA11
:10077900DD22FB7A20E4FCFDFEFFE5822582F5827D
:10078900E58333F583E5F033F5F0EB33FB4017DA16
:10079900E98042E5822582F582E58333F583E5F038
:1007A90033F5F0EB33FBEC33FCED33FDEE33FEEFC9
:1007B90033FFEC957BED957CEE957DEF957E4013AF
:1007C900EC957BFCED957CFDEE957DFEEF957EFF2E
:1007D900438201DABEEB22120883BC0003020ADD60
:1007E900EF60FA30D502B2D1E583B4FF03020AF310
:1007F900E582B4FF03020AF3258340072482400BF4
:10080900020ADD2483145003020AF3F582EA8DF00B
:10081900A4A8F0EA8EF0A428F8E435F0F9EB8DF0FD
:10082900A428E935F0F9E433CA8FF0A429F9EA35A7
:10083900F0FAEBF88EF0A429F9EA35F0FAE433FB83
:10084900EC8DF0A429F9EA35F0FAE43BFBE88FF0E6
:10085900A42AFAEB35F0FBE433CCFD8EF0A42AFA96
:10086900EB35F0FBE43CFCED8FF0A42BFBEC35F011
:10087900FC20E7031208B1020ABCAA82AB83A2F7E3
:100889003392D1F5826002D2F7ACF0E58124F9F810
:10089900E6FD08E6FE0886F008E6A2F73392D5F5EC
:0808A900836002D2F7AFF022D8
:06003500E478FFF6D8FD9F
:1008B1007804EC7011E58224F8500AF582E4C9CA83
:1008C100CBFCD8EF22EC7820058220E713D58201FA
:1008D10022C3E933F9EA33FAEB33FBEC33FCD8EA10
:0308E1001582225B
:100013007900E94400601B7A00901424780175A0EC
:1000230000E493F2A308B8000205A0D9F4DAF2754C
:02003300A0FF2C
:1008E40020F71130F6138883A88220F509F6A8832F
:1008F4007583002280FEF280F5F0221208837900CD
:10090400E583B58202800D500312126CE583C39512
:1009140082121390E5D0C465D020E117EA2DFAEBDA
:100924003EFBEC3FFC50097401121390EC4480FC34
:10093400020ABCC3EA9DFAEB9EFBEC9FFC500FC37A
:10094400E499F9E49AFAE49BFBE49CFCB2D1120822
:04095400B1020ABC26
:10003B007800E84400600A790175A000E4F309D860
:10004B00FC7800E84400600C7900900001E4F0A318
:04005B00D8FCD9FAFA
:10095800FBC2D530E715D2D5E4C39582F582E4957C
:1009680083F583E495F0F5F0E49BFBE57E30E7172B
:10097800B2D5E4C3957BF57BE4957CF57CE4957D65
:10098800F57DE4957EF57EEB12077B30D513FBE40D
:10099800C39582F582E49583F583E495F0F5F0E458
:1009A8009B22C052858152C082058105810581E55F
:1009B8005224FBF8A9520909E6F70809E6F70809DD
:1009C800E6F7A852080886820886830886F012137C
:1009D80061FAA3121361FBA3121361FF74012AFCCD
:1009E800E43BFD8F06A8520808868208868308869D
:1009F800F0EC1208E4A3ED1208E4A3EE1208E48A6E
:100A0800828B838FF0A85208E61208E4855281D0C1
:100A1800522285824F85835085F05175604F7561EC
:100A280000756240854B63854C64854D65854E66CF
:100A38009009AA120BAFAE82AF83AB4FAC50AD5149
:100A48008B828C838DF0E41208E48E828F8322C01F
:100A580052858152E55224F8FF8F66E55224FBFF48
:100A68008F60756100756240E55224F8F886630866
:100A780086640886659009AA120BAFAE82AF83E53B
:100A88005224FBF886030886040886058B828C832B
:100A98008DF0E41208E48E828F83D05222E4AC8376
:100AA800AB82FAF9748E0213867F8E1213D9F583FE
:100AB80085F08222B98003EA13B34010EA2401FAD0
:100AC800E43BFBE43CFC50047C800582BC000EBB8C
:100AD800000BBA0008E4F5F0F583F58222A2D1E50F
:100AE80082138CF092F78B838A8222E4F583F58255
:100AF80075F080F4A2D11322E4F583F58275F0C075
:100B0800747F22AF82C056C057C058120B18800796
:100B1800C054C0558F8222158115811581055EE468
:100B2800B55E02055F22AF8274302FFF24C65011D4
:100B380074072FFFE55360098F057E004305208D5C
:100B4800078F82020B0BE582FFC4540FF582C007A2
:100B5800120B2ED007740F5FF582020B2E85827B55
:100B6800AB59AC5AAD5BAE5CAA5D757D208A07EFC8
:100B78002FF57CEE235401457CFAEB2BFBEC33FC80
:100B8800ED33FDEE33FEC3EA957B4008EAC3957B5F
:100B9800FA430301E57D14FF8F7D70D18B598C5A80
:100BA8008D5B8E5C8A5D228582548583558560566F
:100BB800856157856258E4F55EF55FAD63AE64AF55
:100BC800658D828E838FF0121361FC74012DF5639D
:100BD800E43EF5648F65ECFF7003021265BF2502E1
:100BE800800302125D7E007D008E678E687A007B2E
:100BF800008E697C008E6A8E70756BFF85637185C7
:100C080064728565738571828572838573F01213AA
:100C180061F574A3858271858372857163857264B9
:100C28008573657425B57408857482120B0B808BE7
:100C380074D025745039E57424C6403374FFB56BFD
:100C48001AE570F57575F00AA4F575E574F576255D
:100C58007524D0F57070AE7D0180AAE56B75F00A39
:100C6800A4F576E574F575257624D0F56B80967431
:100C78002EB5740A74FFB56B8C756B008087749FF2
:100C88002574500EE574248540085374DF755301AC
:100C980080037553007420B57403020D38742BB5A6
:100CA8007403020D32742DB5740280797442B574E0
:100CB80003020D3E7443B57403020D497444B574C0
:100CC80003020F5A7446B57403020F707448B57462
:100CD80003020C0D7449B57403020F5A744AB574B3
:100CE80003020C0D744CB574028050744FB5740334
:100CF800020F617450B57403020EA57453B57402E3
:100D080080767454B57403020C0D7455B5740302DF
:100D18000F667458B57403020F6B745AB5740302E6
:100D28000C0D020F747E01020C0D756701020C0D8B
:100D3800756801020C0D7B01020C0D756901020C2E
:100D48000DEB600AE56614F989668776800DE5661D
:100D580024FEF575857566A9758776857682C00641
:100D6800C005C004C003C002120B0BD002D003D0D0
:100D780004D005D006020F93E56624FDF576857646
:100D880066A9768771098772098773191985715958
:100D980085725A85735B8571828572838573F0C00D
:100DA80006C005C004C003C0021212868582718580
:100DB8008372D002D003D004D005D0068571767432
:100DC800FFB56B0385766BEE7036C3E5769570508C
:100DD8002FE570C39576F5758575711575E57160A4
:100DE8001C758220C006C005C004C003C002120BD7
:100DF8000BD002D003D004D005D00680DB857570F7
:100E0800856B75855982855A83855BF0121361F568
:100E18007185716D60488575711575C374808571AC
:100E2800F063F08095F05036856D82C006C005C02D
:100E380004C003C002120B0BD002D003D004D005AB
:100E4800D006855971855A72855B730571E4B57151
:100E580002057285715985725A85735B80A5EE709B
:100E680003020F93C3E57695704003020F93E57074
:100E7800C39576F5768576751576E5757003020F58
:100E880090758220C006C005C004C003C002120BC2
:100E98000BD002D003D004D005D00680D8E5662454
:100EA800FDF575857566A975877109877209877358
:100EB800191985715985725A85735B855B6E7480C3
:100EC800256E5005757543801974A0256E500575FB
:100ED8007550800E74C0256E500575754980037570
:100EE8007558857582C006C005C004C003C00212CB
:100EF8000B0B75823A120B0B758230120B0B758235
:100F080078120B0BD002D003D004D005D006744958
:100F1800B5750280217450B57502801A855A82C051
:100F280006C005C004C003C002120B4ED002D00395
:100F3800D004D005D006855982C006C005C004C0BB
:100F480003C002120B4ED002D003D004D005D00645
:100F580080397A01756A0A8032756A08802D756A47
:100F68000A8028756A1080237C01801F857482C0DE
:100F780006C005C004C003C002120B0BD002D00388
:100F8800D004D005D0068003857670EC6068E566ED
:100F980024FCFC8C668C0187770987780987790996
:100FA800877A19191985775985785A85795B857AE9
:100FB8005C755919755A14755B80855977855A7807
:100FC800855B7974012577F571E43578F572857953
:100FD8007385715985725A85735B857782857883A5
:100FE8008579F0121361FC8C777003020BC3857747
:100FF80082120B0B80C4E56A7003020BC3EB603FDF
:10100800E56614F9896687048C7775780075790028
:10101800757A0085775985785A85795B857A5CEA8F
:1010280060030210B0855977757800757900757A74
:101038000085775985785A85795B857A5C8069E57A
:10104800696025E56624FCFC8C668C018777098736
:101058007809877909877A19191985775985785A06
:1010680085795B857A5C8040E56624FEFC8C668C1D
:10107800018703098704198B77ECF5783395E0F538
:1010880079F57A85775985785A85795B857A5CEA26
:101098007016855977855A78F579F57A857759855F
:1010A800785A85795B857A5CEA602AE55C30E723C3
:1010B800C3E49559F577E4955AF578E4955BF579A5
:1010C800E4955CF57A85775985785A85795B857AD0
:1010D8005C80027A007C0179847B00755D00856AFA
:1010E80082C006C005C004C003C002C001120B655F
:1010F800D001D002D003D004D005D006EC7010C0C7
:1011080003E55DC4F577E74577F719D0038002A7B3
:101118005D0BECB40100E433FCE559455A455B45E9
:101128005C70B8896F8B6CE5707003757001ED7039
:101138002CEE7029857077AB6C0BC3EB9577501A42
:10114800758220C006C005C004C002120B0BD00275
:10115800D004D005D006157780DD857770EA601653
:1011680075822DC006C005C004120B0BD004D00533
:10117800D00615708036E56C6032E56760167582BA
:101188002BC006C005C004120B0BD004D005D00636
:1011980015708018E5686014758220C006C005C007
:1011A80004120B0BD004D005D0061570EE7034ABCA
:1011B800708B021BC3E56C9A503CED600875773064
:1011C8007578008006757720757800857782C00667
:1011D800C005C004C003120B0BD003D004D005D047
:1011E8000680CEC3E56C95705008E570C3956CFD1C
:1011F80080067D0080028B05A96FAB6C8B021BEA11
:101208006036ECB40100E433FC700A09E7C4540FFB
:10121800FA8A5D80078702740F5AF55D855D82C082
:1012280006C005C004C003C001120B2ED001D003B4
:10123800D004D005D00680C4EE7003020BC38D061F
:101248008E051EED7003020BC3758220C006120BBB
:101258000BD00680EB8F82120B0B020BC3855E82CC
:04126800855F8322F9
:0B1419003C4E4F20464C4F41543E001B
:10126C00E582C583F582A2D133A2D592D11392D552
:10127C00ECCFFCEBCEFBEACDFA22AA82AB831213A5
:10128C00616003A380F8C3E5829AF582E5839BF540
:10129C00832212088330D502B2D1BF0009BC0003EF
:1012AC00020B00020AF3BC0003020ADDE583B4FF63
:1012BC000BE582B4FF03020B00020ADDE582B4FFEA
:1012CC0003020AF3C395835007247F400B020ADD07
:1012DC002480145003020AF3F582C3ED9AEE9BEFBF
:1012EC009C40111582C3EA33F9EB33FAEC33FBE47F
:1012FC0033FC8005E4CCCBCAF9C08275F019C3E984
:10130C009DEA9EEB9FEC9400D5F002802D400EE9F7
:10131C009DF9EA9EFAEB9FFBEC9400FCC3B3E83317
:10132C00F8E58233F582E58333F583C3E933F9EAD3
:10133C0033FAEB33FBEC33FC80C4B3E4F938FAE456
:10134C003582FBE43583FCD082500405827C80120C
:05135C0008B1020AD4F3
:0D0006007581841213D3E5826003020003AC
:1013610020F71430F6148883A88220F507E6A883B5
:1013710075830022E280F7E49322E022FCABF0AA1D
:1013810083A982749EC2D1F5821208B1020ABC609F
:1013910040F82582500274FFF582E824F8501ECCF3
:1013A100CBCAF9E4CC24F85014CBCAF9E4CB24F825
:1013B100500BCAF9E4CA24F85003790022240860CA
:1013C10010F8C3EC13FCEB13FBEA13FAE913F9D899
:1013D100F122758200227F9E1213FE30D103020A90
:1013E100DDC3EF9582500974FFF5F0F583F5822294
:1013F100790012139089828A838BF0EC22AA82AB46
:0F14010083A2F73392D1F5826002D2F7ACF022CA
:00000001FF
