:03000000020006F5
:03005F0002000399
:0300030002008573
:1000620085829022AE82AF837C007D00C3EC9EED40
:1000720064808FF063F08095F050070CBC00ED0DAA
:1000820080EA2275080F75820F1200629000FF123B
:1000920000667582F01200629000FF12006680E630
:06003500E478FFF6D8FD9F
:100013007900E94400601B7A009000A6780175A07E
:1000230000E493F2A308B8000205A0D9F4DAF2754C
:02003300A0FF2C
:10003B007800E84400600A790175A000E4F309D860
:10004B00FC7800E84400600C7900900001E4F0A318
:04005B00D8FCD9FAFA
:0D0006007581081200A2E58260030200036C
:0400A2007582002241
:00000001FF
