:0300000002000CEF
:0300650002000393
:0300030002006F89
:0F006B00858290227508FF85088212006B80F84D
:0300060002000CE9
:030068000200098A
:0300090002009D55
:20007A0085829022AE82AF837C007D00C3EC9EED64808FF063F08095F050070CBC00ED0D44
:20009A0080EA2275090F75820F12007A90271012007E7582F012007A90271012007E80E614
:06003B00E478FFF6D8FD99
:200019007900E94400601B7A009000BE780175A000E493F2A308B8000205A0D9F4DAF275CF
:02003900A0FF26
:200041007800E84400600A790175A000E4F309D8FC7800E84400600C7900900001E4F0A3BD
:04006100D8FCD9FAF4
:0D000C007581091200BAE582600302000947
:0400BA007582002229
:00000001FF
