:03000000020006F5
:0300670002000391
:0300030002006A8E
:10006A007480C0E0E4C0E07494C0E0740DC0E07431
:10007A0080C0E07408C0E07400C0E07440C0E012C0
:10008A0005ADE58124F8F58112010790000875F0A5
:10009A00401201DC7E007F00C007C006120214D0A5
:1000AA0006D0070EBE00010FC007C006C006C00773
:1000BA0074A8C0E0740DC0E07480C0E07408C0E0A9
:1000CA007400C0E07440C0E01205ADE58124F8F583
:1000DA008190000875F0401201DC9027101200F0A0
:0600EA00D006D00780B231
:100D940068656C6C6F2070696E656170706C6573EA
:070DA4002025640025640016
:08005F00752B00E4F52CF52DD2
:1000F000AE82AF837C007D00C3EC9EED9F50070C69
:10010000BC00F50D80F222C2C0C2C1758030D2C2DF
:1001100090012C1200F0C2C29000641200F0D2C212
:1001200090012C1200F0C2C29000641200F0D2C202
:1001300090012C1200F0C2C29000641200F0758091
:1001400038D2C29000641200F0C2C2900064120063
:10015000F0758008D2C290012C1200F0C2C290004B
:10016000641200F0758001D2C290012C1200F0C21E
:10017000C29000641200F0758006D2C290012C1269
:1001800000F0C2C29000641200F075800CD2C290E0
:10019000012C1200F0C2C29000641200F075280019
:1001A00022AF827410B5280C758210C0071202337A
:1001B000D007800F7420B5280A758200C00712028C
:1001C00033D007D2C0C2C18F80D2C2900032120099
:1001D000F0C2C29000321200F0052822AD82AE8338
:1001E000AFF0752900E5292DFAE43EFB8F048A82E1
:1001F0008B838CF0120D74FC60198C82C007C006D2
:10020000C0051201A1D005D006D007052974E0254C
:100210002950D222C2C0C2C1758001D2C290003220
:100220001200F0C2C29000641200F075280022850E
:10023000288222AF8274E02528403E8F2874F02562
:1002400028401BAF2874802FF580C2C0C2C1D2C223
:100250009000641200F0C2C29000320200F0AF2899
:1002600074B02FF580C2C0C2C1D2C2900064120027
:10027000F0C2C29000320200F0227401252B40042B
:10028000052B80F6D2A0D2A1D2A2D2A3752A0DC28C
:10029000A020A403752A0120A503752A0220A60325
:1002A000752A03D2A0C2A120A403752A0420A503A5
:1002B000752A0520A603752A06D2A1C2A220A4038E
:1002C000752A0720A503752A0820A603752A09D2D6
:1002D000A2C2A320A403752A0A20A503752A002020
:1002E000A603752A0CD2A3852A8222AEF643060104
:1002F0008EF675F320AEF34306088EF3E5F3E47053
:10030000FB53F3EFAEF57F00EE2EFEEF33FFEE2E44
:10031000FEEF33FFACF47D00EC2EF52CED3FF52D18
:10032000852C82852D8322AE82AF83AC8943042045
:100330008C8953892FC29FD29EAC874304808C87BF
:100340008E638F6475650075660090F424E4F5F0A3
:100350001204AEAC82C3E49CFC8C8DD29CD28E2263
:1003600085829910990280FB22AD82AE83AFF07C2A
:1003700000EC2DF9E43EFA8F0389828A838BF01218
:100380000D74FB60188B82C007C006C005C0041244
:100390000360D004D005D006D0070C80D475820D40
:1003A00012036075820A0203603098FD859982C24B
:1003B000982285823085833185F0327C007B008BEA
:1003C000017A00C3E9952EEA6480852FF063F080FE
:1003D00095F05044C004C0031203A9AA82D003D0F0
:1003E00004BA0D028003BA0A16EC2530F8E4353160
:1003F000F9AF32888289838FF0E41204938019EB7D
:100400002530FDE43531FEAF328D828E838FF0EAE8
:100410001204930B8B0480A7E52E2530FDE52F35C4
:1004200031FEAF328D828E838FF0E4020493FB7A2B
:1004300020E4FCFDFEFFE5822582F582E58333F5AD
:1004400083E5F033F5F0EB33FB4017DAE98042E562
:10045000822582F582E58333F583E5F033F5F0EB11
:1004600033FBEC33FCED33FDEE33FEEF33FFEC9565
:1004700063ED9564EE9565EF95664013EC9563FC2E
:10048000ED9564FDEE9565FEEF9566FF438201DA1A
:03049000BEEB229E
:06003500E478FFF6D8FD9F
:100013007900E94400601B7A00900DB6780175A061
:1000230000E493F2A308B8000205A0D9F4DAF2754C
:02003300A0FF2C
:1004930020F71130F6138883A88220F509F6A88384
:0B04A3007583002280FEF280F5F0223D
:10003B007800E84400600A790175A000E4F309D860
:10004B00FC7800E84400600C7900900001E4F0A318
:04005B00D8FCD9FAFA
:1004AE00FBC2D530E715D2D5E4C39582F582E4952B
:1004BE0083F583E495F0F5F0E49BFBE56630E717F2
:1004CE00B2D5E4C39563F563E49564F564E495658C
:1004DE00F565E49566F566EB12042E30D513FBE454
:1004EE00C39582F582E49583F583E495F0F5F0E407
:1004FE009B22C03A85813AC082058105810581E53E
:10050E003A24FBF8A93A0909E6F70809E6F70809BB
:10051E00E6F7A83A080886820886830886F0120D48
:10052E0074FAA3120D74FBA3120D74FF74012AFC4E
:10053E00E43BFD8F06A83A08088682088683088663
:10054E00F0EC120493A3ED120493A3EE1204938A1B
:10055E00828B838FF0A83A08E6120493853A81D0F5
:10056E003A2285823785833885F039754837754943
:10057E0000754A4085334B85344C85354D85364E56
:10058E0090050012069FAE82AF83AB37AC38AD3903
:10059E008B828C838DF0E41204938E828F8322C023
:1005AE003A85813AE53A24F8FF8F4EE53A24FBFF6F
:1005BE008F48754900754A40E53A24F8F8864B088D
:1005CE00864C08864D90050012069FAE82AF83E5DD
:1005DE003A24FBF886030886040886058B828C83F2
:1005EE008DF0E41204938E828F83D03A22AF82C0B4
:1005FE003EC03FC0401206088007C03CC03D8F82FF
:10060E00221581158115810546E4B546020547225E
:10061E00AF8274302FFF24C6501174072FFFE53BB5
:10062E0060098F057E004305208D078F820205FB32
:10063E00E582FFC4540FF582C00712061ED0077460
:10064E000F5FF58202061E858263AB41AC42AD435D
:10065E00AE44AA457565208A07EF2FF564EE235444
:10066E00014564FAEB2BFBEC33FCED33FDEE33FE70
:10067E00C3EA95634008EAC39563FA430301E5654F
:10068E0014FF8F6570D18B418C428D438E448A4509
:10069E002285823C85833D85483E85493F854A407B
:1006AE00E4F546F547AD4BAE4CAF4D8D828E838F44
:1006BE00F0120D74FC74012DF54BE43EF54C8F4D8C
:1006CE00ECFF7003020D55BF25028003020D4D7E17
:1006DE00007D008E4F8E507A007B008E517C008EF6
:1006EE00528E587553FF854B59854C5A854D5B85F7
:1006FE005982855A83855BF0120D74F55CA3858251
:10070E005985835A85594B855A4C855B4D7425B551
:10071E005C08855C821205FB808B74D0255C503999
:10072E00E55C24C6403374FFB5531AE558F55D7584
:10073E00F00AA4F55DE55CF55E255D24D0F55870F4
:10074E00AE7D0180AAE55375F00AA4F55EE55CF571
:10075E005D255E24D0F5538096742EB55C0A74FF29
:10076E00B5538C7553008087749F255C500EE55CE5
:10077E0024854008535CDF753B018003753B007494
:10078E0020B55C03020828742BB55C0302082274A2
:10079E002DB55C0280797442B55C0302082E744359
:1007AE00B55C030208397444B55C03020A4A744608
:1007BE00B55C03020A607448B55C030206FD744919
:1007CE00B55C03020A4A744AB55C030206FD744C1A
:1007DE00B55C028050744FB55C03020A517450B57B
:1007EE005C030209957453B55C0280767454B55C53
:1007FE00030206FD7455B55C03020A567458B55CC7
:10080E0003020A5B745AB55C030206FD020A647E9B
:10081E00010206FD754F010206FD7550010206FD2F
:10082E007B010206FD7551010206FDEB600AE54EE5
:10083E0014F9894E875E800DE54E24FEF55D855DCB
:10084E004EA95D875E855E82C006C005C004C003EA
:10085E00C0021205FBD002D003D004D005D0060290
:10086E000A83E54E24FDF55E855E4EA95E87590925
:10087E00875A09875B1919855941855A42855B4309
:10088E00855982855A83855BF0C006C005C004C0B9
:10089E0003C002120D5C85825985835AD002D003A3
:1008AE00D004D005D00685595E74FFB55303855E1E
:1008BE0053EE7036C3E55E9558502FE558C3955EDE
:1008CE00F55D855D59155DE559601C758220C00684
:1008DE00C005C004C003C0021205FBD002D003D075
:1008EE0004D005D00680DB855D5885535D85418239
:1008FE008542838543F0120D74F55985595560482C
:10090E00855D59155DC374808559F063F08095F04F
:10091E005036855582C006C005C004C003C0021201
:10092E0005FBD002D003D004D005D00685415985F1
:10093E00425A85435B0559E4B55902055A8559411A
:10094E00855A42855B4380A5EE7003020A83C3E598
:10095E005E95584003020A83E558C3955EF55E85A1
:10096E005E5D155EE55D7003020A80758220C0062D
:10097E00C005C004C003C0021205FBD002D003D0D4
:10098E0004D005D00680D8E54E24FDF55D855D4E7C
:10099E00A95D875909875A09875B191985594185B8
:1009AE005A42855B43854356748025565005755DC6
:1009BE0043801974A025565005755D50800E74C085
:1009CE0025565005755D498003755D58855D82C05D
:1009DE0006C005C004C003C0021205FB75823A12A0
:1009EE0005FB7582301205FB7582781205FBD0026D
:1009FE00D003D004D005D0067449B55D02802174B1
:100A0E0050B55D02801A854282C006C005C004C082
:100A1E0003C00212063ED002D003D004D005D00689
:100A2E00854182C006C005C004C003C00212063E46
:100A3E00D002D003D004D005D00680397A01755289
:100A4E000A8032755208802D75520A802875521010
:100A5E0080237C01801F855C82C006C005C004C057
:100A6E0003C0021205FBD002D003D004D005D0067D
:100A7E008003855E58EC6068E54E24FCFC8C4E8C41
:100A8E0001875F09876009876109876219191985CE
:100A9E005F418560428561438562447541AB754215
:100AAE000D75438085415F854260854361740125E4
:100ABE005FF559E43560F55A85615B855941855A74
:100ACE0042855B43855F828560838561F0120D747C
:100ADE00FC8C5F70030206B3855F821205FB80C437
:100AEE00E55270030206B3EB603FE54E14F9894EF2
:100AFE0087048C5F756000756100756200855F41CB
:100B0E00856042856143856244EA6003020BA085DD
:100B1E00415F756000756100756200855F4185609B
:100B2E00428561438562448069E5516025E54E2426
:100B3E00FCFC8C4E8C01875F0987600987610987F1
:100B4E0062191919855F418560428561438562444A
:100B5E008040E54E24FEFC8C4E8C018703098704F1
:100B6E00198B5FECF5603395E0F561F562855F41B9
:100B7E00856042856143856244EA701685415F85D2
:100B8E004260F561F562855F41856042856143850E
:100B9E006244EA602AE54430E723C3E49541F55FF9
:100BAE00E49542F560E49543F561E49544F562857C
:100BBE005F4185604285614385624480027A007C94
:100BCE0001796C7B00754500855282C006C005C058
:100BDE0004C003C002C001120655D001D002D003DA
:100BEE00D004D005D006EC7010C003E545C4F55F07
:100BFE00E7455FF719D0038002A7450BECB401005F
:100C0E00E433FCE54145424543454470B889578B72
:100C1E0054E5587003755801ED702CEE7029855807
:100C2E005FAB540BC3EB955F501A758220C006C0A4
:100C3E0005C004C0021205FBD002D004D005D006B8
:100C4E00155F80DD855F58EA601675822DC006C07F
:100C5E0005C0041205FBD004D005D0061558803609
:100C6E00E5546032E54F601675822BC006C005C094
:100C7E00041205FBD004D005D00615588018E55097
:100C8E006014758220C006C005C0041205FBD00496
:100C9E00D005D0061558EE7034AB588B021BC3E549
:100CAE00549A503CED6008755F3075600080067593
:100CBE005F20756000855F82C006C005C004C0035A
:100CCE001205FBD003D004D005D00680CEC3E55468
:100CDE0095585008E558C39554FD80067D00800256
:100CEE008B05A957AB548B021BEA6036ECB401009E
:100CFE00E433FC700A09E7C4540FFA8A458007876B
:100D0E0002740F5AF545854582C006C005C004C061
:100D1E0003C00112061ED001D003D004D005D006A8
:100D2E0080C4EE70030206B38D068E051EED7003B1
:100D3E000206B3758220C0061205FBD00680EB8F2B
:0E0D4E00821205FB0206B3854682854783228A
:0B0DAB003C4E4F20464C4F41543E0090
:100D5C00AA82AB83120D746003A380F8C3E5829A58
:080D6C00F582E5839BF583226B
:0D00060075816C120D90E58260030200030D
:100D740020F71430F6148883A88220F507E6A883A8
:100D840075830022E280F7E49322E0227582002238
:00000001FF
